:020000040801F1
:103C500000B583B00190019B032B17D801A252F845
:103C600023F000BF753C01087B3C0108813C010842
:103C7000873C01084FF00C0310E04FF00D030DE0FE
:103C80004FF00E030AE04FF00F0307E044F6100078
:103C9000C0F60100ECF788FE4FF00003184603B0B1
:103CA00000BD00BF00B583B00190019BA3F10C03E0
:103CB000032B17D801A252F823F000BFCD3C010816
:103CC000D33C0108D93C0108DF3C01084FF0000358
:103CD00010E04FF001030DE04FF002030AE04FF057
:103CE000030307E044F61000C0F60100ECF75CFEA9
:103CF0004FF00003184603B000BD00BF00000000F5
:103D000000B583B00190019B03F1FF33032B1FD853
:103D100001A252F823F000BF293D0108333D0108FC
:103D20003D3D0108473D01084FF44063C4F20103E3
:103D300012E04FF44063C4F201030DE04FF440631E
:103D4000C4F2010308E04FF44063C4F2010303E04E
:103D5000ECF756FA4FF00003184603B000BD00BF61
:103D600000B583B00190019B03F1FF33032B17D8FB
:103D700001A252F823F000BF893D01088F3D0108E0
:103D8000953D01089B3D01084FF00C030CE04FF0FE
:103D90000D0309E04FF00E0306E04FF00F0303E0C0
:103DA000ECF72EFA4FF00003184603B000BD00BF39
:103DB00000B593B0019008AB184644F63001C0F648
:103DC00001014FF00102F4F741FE04AB184600F088
:103DD000B7FB019B1B788DF843304FF00003119324
:103DE0009DF84330002B05D144F62000C0F60100B9
:103DF000ECF7DAFD08AA04AB1046194644F638027F
:103E0000C0F6010240F6C443C2F2000300F0D8FB42
:103E100004AA03AB1046194600F0EAFB0346002B48
:103E20001ED0039B9DF84320C3F80220039B119AE8
:103E3000D2B29A71119B83F001031193039B04AAE0
:103E40001046194600F0E4FB034683F00103DBB2A1
:103E5000002B05D044F62000C0F60100ECF7A4FDCD
:103E60000FAB18464FF4FA71FAF73AFA0FAB18464F
:103E7000FAF7B6FBCCE700BF70B582B00190019BAA
:103E8000D3F802301846FFF73BFF0446019B9B79AD
:103E900003F00103002B14BF00230123DBB21D46F6
:103EA000019BD3F802301846FFF75AFF034603F18F
:103EB000100305FA03F5019B9B7903F00106019BB2
:103EC000D3F802301846FFF74BFF034606FA03F318
:103ED0002B4323614FF00400FFF712FF04464FF01D
:103EE0000400FFF73DFF03464FF0010202FA03F31F
:103EF00023614FF00103184602B070BD30B5A7B082
:103F000001901EAB184644F64001C0F601014FF087
:103F10000102F4F79BFD02AB184643F67961C0F647
:103F2000010100F095FB1EAA02AB1046194644F6AB
:103F30003802C0F6010200F0EBFB00E000BF25AB49
:103F400018464FF47A71FAF7CBF91EAA25AB104642
:103F50001946F4F7F7FC034683F00103DBB2002BAC
:103F6000ECD04FF00400FFF7CBFE04464FF0040006
:103F7000FFF7C6FE0346DD684FF00400FFF7F0FED2
:103F800003464FF0010202FA03F36B40E360D5E70A
:103F900000B585B00190019BD3F802301846FFF7B9
:103FA000DFFE0390019BD3F802301846FFF7A8FE0E
:103FB0000290019B9B79002B08D0039B4FF00102DC
:103FC00002FA03F31A46029B5A6107E0039B4FF083
:103FD000010202FA03F31A46029B1A614FF0010331
:103FE000184605B000BD00BF00B5A5B01CAB184613
:103FF00019494FF00102F4F729FD6B46184643F6C4
:104000009171C0F6010100F023FB1CAA6B4610461B
:104010001946124A00F07CFB0FE044F6D003C0F6CC
:1040200001031B6823AA10461946FAF759F91CAA7E
:1040300023AB10461946F4F785FC00F0D1FB03468C
:10404000002BEAD16B46184600F032FB1CAB184639
:10405000F4F750FD25B000BDE5480108D44801083B
:1040600008B54FF0200383F31188ECF74BFB08BD34
:1040700008B5ECF765FB4FF0000383F3118808BD2A
:1040800008B5F9F78DFD08BD000000000000000034
:1040900008B5F9F78DFD08BD000000000000000024
:1040A00000B583B00190019B1846EFF7B3FE0346BD
:1040B000184603B000BD00BF000000000000000073
:1040C00082B00190019B1A684DF68363C4F21B33E2
:1040D00083FB02134FEAA3414FEAE273CB1A18465F
:1040E00002B0704700000000000000000000000067
:1040F00082B001900091009B1A68019B1A60019B9D
:10410000184602B0704700BF000000000000000029
:1041100000B583B001900091009B4FF47A7202FBCE
:1041200003F301981946FAF773FD019803B000BD37
:1041300082B00190019B4FF000021A704FF0000214
:104140005A7002B0704700BF00000000000000007D
:1041500082B00190019B4FF000021A704FF00002F4
:104160005A70019B184602B0704700BF0000000063
:1041700000B583B001900091019B5B68002B05D1D5
:1041800044F62000C0F60100ECF70EFC019B5B68D2
:104190001846FAF72DFB0246009B1A60009B1B682D
:1041A000002B0CBF00230123DBB2184603B000BD77
:1041B00000B585B001900091F9F702FD01980099D2
:1041C000FAF716F903468DF80F30F9F701FD9DF85F
:1041D0000F30184605B000BD0000000000000000D0
:1041E00000B583B00190019B1B68002B29DD019B6A
:1041F0001A6844F23F23C0F20F039A4215DC019B78
:104200001B684FF47A7202FB03F303F1FF324DF6A1
:104210008363C4F21B33A3FB02134FEA934303F1FE
:1042200001031846EDF754F80DE00198FAF720F86D
:1042300003464FF47A7202FB03F31846EDF748F891
:1042400001E0EDF787F803B000BD00BF00000000FB
:1042500000B583B001900198FAF76AF903B000BD88
:1042600082B00190019B1B68184602B0704700BFE6
:1042700000B583B001900091019B1B68002B13D007
:10428000009B1F2B05D944F62000C0F60100ECF777
:104290008BFB019B1A68009B4FF0010101FA03F3AD
:1042A00010461946EEF79AFA03B000BD0000000070
:1042B00000B583B00190019B1846F9F7D9FD03467C
:1042C000184603B000BD00BF000000000000000061
:1042D00000B583B001900091019B18460099F9F751
:1042E000CFFD03B000BD00BF0000000000000000D3
:1042F00000B583B00190019B03F10C031846F9F758
:10430000DFFD0346002B0CBF00230123DBB2184660
:1043100003B000BD0000000000000000000000002D
:1043200000B583B001900091019B03F10C03184686
:104330000099F9F7D5FD03B000BD00BF00000000F3
:1043400000B583B00190019B03F110031846F9F703
:104350007FFE0346184603B000BD00BF000000000A
:1043600000B587B0039002910192039B03F1100303
:1043700018460299F9F774FE0346002B0BD005ABE3
:104380001846F8F78DFB05AB01981946F9F760FD63
:104390004FF0010301E04FF00003184607B000BDE5
:1043A00000B585B0039002910192039B9B6818466B
:1043B000F9F7A6FD0346002B0CD0039B03F1100375
:1043C00018460299F9F784FE0346002B02D04FF0FD
:1043D000010301E04FF00003002B0BD0039B9A6810
:1043E000039B93F8243010461946F9F7A1FD4FF0CE
:1043F000010301E04FF00003184605B000BD00BF07
:1044000010B582B00190019B03F108031846F9F73B
:104410000FFF0446002C04D02046F9F7D1FE2346B6
:1044200001E04FF00003184602B010BD000000008C
:1044300082B001900091019B009A1A60019B18467E
:1044400002B0704700000000000000000000000003
:1044500082B00190019B5B68184602B0704700BFB4
:1044600082B001900091019B9B68002B27D0019B9B
:104470009B6803F1FF32019B9A60019BDB681A681D
:10448000009B1A60019BDB6803F10402019BDA6068
:10449000019BDA68019B1968019B5B684FEA830303
:1044A000CB189A4234BF00230123DBB2002B03D088
:1044B000019B1A68019BDA604FF0010301E04FF0A5
:1044C0000003184602B07047000000000000000022
:1044D00082B001900091019B9A68019B5B689A42AF
:1044E00026D2019B9B6803F10102019B9A60019B0C
:1044F0001B69009A1A60019B1B6903F10402019B6E
:104500001A61019B1A69019B1968019B5B684FEA5C
:104510008303CB189A4234BF00230123DBB2002B64
:1045200003D0019B1A68019B1A614FF0010301E05F
:104530004FF00003184602B0704700BF00000000B3
:1045400000B583B00190019B1846F2F709FD019B6D
:10455000024A1A60019B184603B000BDC848010812
:1045600000B583B00190019B094A1A60019B18466F
:10457000F2F70EFD4FF0000303F00103002B02D011
:104580000198F9F7D5FA019B184603B000BD00BFAA
:10459000C848010800000000000000000000000002
:1045A00000B583B001900198FFF7DAFF0198F9F7A1
:1045B000BFFA019B184603B000BD00BF0000000019
:1045C00000B587B00590049103920293049B4FF0CD
:1045D0000702009205981946039A029BF4F730F9F6
:1045E0000346184607B000BD0000000000000000B0
:1045F00000B583B001900091019B18460099F9F72E
:1046000017FF0346184603B000BD00BF00000000BE
:1046100000B583B001900091019A009B10461946A5
:10462000F2F708FB0346184603B000BD0000000087
:1046300000B583B00190019B1846F9F7A1FE019BDC
:10464000184603B000BD00BF0000000000000000DD
:1046500030B583B001900091019A019B03F15C0396
:10466000104619464FF00502009B00F069F8019BC7
:104670000D4A1A60019B03F138031D464FF00404F4
:1046800006E02846FFF7D4FF05F1070504F1FF34E3
:10469000B4F1FF3F0CBF00230123DBB2002BF0D1AC
:1046A000019B184603B030BD6848010800000000B7
:1046B00000B583B00190019B094A1A60019B18461E
:1046C00000F056F84FF0000303F00103002B02D076
:1046D0000198F9F72DFA019B184603B000BD00BF01
:1046E0006848010800000000000000000000000011
:1046F00000B583B001900198FFF7DAFF0198F9F750
:1047000017FA019B184603B000BD00BF000000006F
:1047100000B587B0059004910392049A049B03F1BD
:1047200038034FF00701009105981146039AF4F7FA
:10473000ADF80346184607B000BD00BF00000000FA
:1047400000B585B00390029101920093039B184637
:104750000299019A009BF2F7ABFC039B024A1A6094
:10476000039B184605B000BD9848010800000000F2
:1047700000B583B00190019B094A1A60019B18465D
:10478000F2F7DEFC4FF0000303F00103002B02D030
:104790000198F9F7CDF9019B184603B000BD00BFA1
:1047A0009848010800000000000000000000000020
:1047B00000B583B001900198FFF7DAFF0198F9F78F
:1047C000B7F9019B184603B000BD00BF0000000010
:1047D00082B00190019B93F89832184602B070475E
:1047E00000B583B0F9F7ECF941F26820C2F200009D
:1047F000FAF786F9034683F001038DF80730F9F7DD
:10480000E7F99DF80730184603B000BD000000002E
:104810005232505F41535345525428290000000042
:104820005232505F41535345525428290000000032
:104830006C656470756200006C6564730000000054
:104840006C656473756200000000000000000000E9
:104850005232505F41535345525428290000000002
:10486000000000000000000051DF0008B1DF000878
:1048700071DF00086570000819700008B146010872
:10488000F1460108000000000000000000000000E8
:10489000000000000000000051DF0008B1DF000848
:1048A00071DF000865700008197000087147010881
:1048B000B1470108000000000000000000000000F7
:1048C000000000000000000061450108A14501084A
:1048D000F40100006C65647300000000000000003B
:1048E00000000000004C45445F53554200000000AA
:0400000508013C5062
:00000001FF
