:020000040800F2
:1000000000040020AD010008810200088102000800
:1000100081020008810200088102000881020008B4
:10002000810200088102000881020008C90200085C
:10003000810200088102000881020008A102000874
:100040008102000881020008810200088102000884
:100050008102000881020008810200088102000874
:10006000810200088102000881020008615A00082C
:10007000A55A0008ED5A0008355B00087D5B0008B2
:10008000C55B00080D5C000881020008FD9B0008AC
:10009000199C0008359C0008519C0008810200084A
:1000A0008102000881020008810200088102000824
:1000B00081020008F19F0008810200088102000807
:1000C0008102000849670008816700088102000872
:1000D00081020008810200088102000851740008B2
:1000E00081020008810200088102000881020008E4
:1000F00081020008810200088102000881020008D4
:1001000081020008810200088102000881020008C3
:1001100081020008810200088102000881020008B3
:10012000555C0008995C0008E15C0008295D000846
:10013000715D000881020008810200088102000848
:100140008102000881020008810200088102000883
:100150008102000881020008810200088102000873
:1001600081020008810200084178000851780008E7
:100170008102000881020008810200088102000853
:08018000810200088102000861
:1001A000704700BF704700BFFEE700BF72B6244C27
:1001B00084F30988022484F31488BFF36F8F214CE1
:1001C000214D04E023461C1D4FF055321A60AC420D
:1001D000F8D31E4C1A4D04E023461C1D4FF0553237
:1001E0001A60AC42F8D308F00BF8194D194C05E031
:1001F00023461C1D2A46151D12681A60164B9C4288
:10020000F6D3164C164D03E023461C1D00221A603F
:10021000AC42F9D3FFF7C6FF124C02E023689847BF
:100220000434114B9C42F9D310F048FE0F4C02E00D
:100230002368984704340E4B9C42F9D3FFF7B4FF70
:10024000000800200000002000040020000400201E
:1002500050D2010800080020E8100020E81000201B
:1002600050340020D0D10108D8D10108D8D10108DC
:10027000D8D10108000000000000000000000000CC
:10028000FEE700BF000000000000000000000000CA
:1002900072B6FEE700000000000000000000000051
:1002A00008B500F049FA202383F3118800F018FA0A
:1002B00000F064F900F02AFA002383F3118800F0BB
:1002C00059FA00F029F808BD82B0EFF309830193D1
:1002D000019B20330193019B83F30988002383F35F
:1002E000118802B0704700BF08B5094B00229A6020
:1002F000074B084ADA600720102100F0CBF80A20EB
:10030000202100F0C7F80B20802100F0C3F808BDC1
:1003100000ED00E00003FA0582B0202383F311888A
:10032000134B5B6803F40063002B1CD0EFF30983CD
:100330000193019B203B0193019B4FF08072DA6196
:10034000019B83F309880B4B1B689A68094B9B69D7
:100350009B689A4203D9019B074A9A6106E0019B78
:10036000064A9A6102E0002383F3118802B07047C5
:1003700000ED00E02C2E0020810300088C03000813
:1003800000F082F900F006FD00F094F900DF00BFF4
:1003900003460A462DE9F04FC2F80CD0D3F80CD032
:1003A000BDE8F08F08B500F085F9002383F31188CC
:1003B0002846A04700F09EFE08BD00BF00000000D8
:1003C00010B485B001900091019B03F00303DB00A2
:1003D0000393194C019B9B081749019A9208C0325C
:1003E00051F822200399FF2000FA01F1C94311407E
:1003F000039A009800FA02F20A43C03344F823201B
:100400000D49019B5B09019A02F01F02012000FACD
:1004100002F2603341F823200749019B5B09019AEE
:1004200002F01F02012000FA02F241F8232005B079
:100430005DF8044B704700BF00E100E010B485B0E8
:100440000190019B03F00303DB0003931049019B20
:100450005B09019A02F01F02012000FA02F2203328
:1004600041F823200A48019B9B080949019A9208F8
:10047000C03251F822200399FF2404FA01F1C94344
:100480000A40C03340F8232005B05DF8044B7047A4
:1004900000E100E010B485B001900091019B03F0F1
:1004A0000303DB0003930D4C019B9B080B49019A4E
:1004B0009208063251F822200399FF2000FA01F138
:1004C000C9431140039A009800FA02F20A43063326
:1004D00044F8232005B05DF8044B704700ED00E0C0
:1004E00000B583B00190034B9B69034A9A6100F009
:1004F000E9FDFCE72C2E002080B6010800B583B092
:10050000FFF7F2FE00F086FA00F0CAF902F000FFF1
:1005100002F0DEFF00F074F91248402100F05AFCAE
:100520000246114B9A61104B9B69012283F82020EF
:100530000D4B9B690D4ADA6100F092F8002383F3BA
:10054000118862B6084B9B69094A9A61002300939F
:1005500008484FF4D0710122074B00F0D3FC03B0E0
:100560005DF804FBE81000202C2E00200004002081
:1005700050B8010868280020E104000800B583B0E5
:1005800000F016F91D4B9B695A6A01325A621C4BE6
:10059000DB6801331A4AD360194B1B68184A93422F
:1005A00029D0174B1B689A68013A9A601CE0019B9E
:1005B000DB680093019B0022DA60019B1B68104AF4
:1005C0005A60019B1B680E4A136000F09FF80023DD
:1005D00083F31188019B1A69009B104698472023DA
:1005E00083F3118800F07CF8054B1B680193019B95
:1005F0009B68002BDBD003B05DF804FB2C2E0020A1
:100600001C2E002000000000000000000000000080
:1006100008B5064B1B68002B03D1054B1B68002B4C
:1006200002D0044800F028F908BD00BF142E0020B5
:10063000182E002090B6010808B5064B1B68002B49
:1006400003D1054B1B68002B02D0044800F014F9BD
:1006500008BD00BF142E0020182E002098B60108F7
:1006600008B5064B1B68002B03D1054B1B68002BFC
:1006700002D0044800F000F908BD00BF142E00208D
:10068000182E0020A0B6010808B5074B1B68002BE8
:1006900003D1064B1B68002B02D0054800F0ECF894
:1006A000024B01221A6008BD142E0020182E0020D3
:1006B000A8B6010808B5074B1B68002B03D1064BF1
:1006C0001B68002B02DC054800F0D6F8024B002224
:1006D0001A6008BD142E0020182E0020B0B60108A4
:1006E00008B5074B1B68002B03DD064B1B68002B6E
:1006F00002D0054800F0C0F8024B01221A6008BD84
:10070000142E0020182E0020B8B6010808B5074B9B
:100710001B68002B03DD064B1B68002B02DC054821
:1007200000F0AAF8024B00221A6008BD142E002027
:10073000182E0020C0B6010808B5202383F31188C5
:10074000094B1B68002B03DB084B1B68002B02D0F6
:10075000074800F091F8044B1B680133024A13600C
:10076000002383F3118808BD142E0020182E0020CA
:10077000C8B6010808B5202383F31188094B1B680C
:10078000002B03DD084B1B68002B02D0074800F04C
:1007900073F8044B1B68013B024A1360002383F388
:1007A000118808BD142E0020182E0020D0B6010894
:1007B00008B5064B1B68002B03DB054B1B68002BA1
:1007C00002DC044800F058F808BD00BF142E0020D9
:1007D000182E0020D8B6010808B5064B1B68002B60
:1007E00003D1054B1B68002B02DC044800F044F8E1
:1007F00008BD00BF142E0020182E0020E0B601080E
:10080000034B40221A60024B024A5A60704700BFF5
:10081000082A0020102A002082B00190114B5B684A
:10082000114AD2681A600F4B5B68104A92695A608D
:100830000C4B5B68019A926A9A600A4B5B68019A5A
:1008400092F820201A73074B5B681033054A5360F7
:10085000044B5B68064A934202D3024B054A5A6036
:1008600002B07047082A00201C2E00202C2E0020E9
:10087000102E0020102A002000B583B00190044AF9
:10088000019B1360FFF704FD03B05DF804FB00BF9C
:10089000102E0020000000000000000000000000FA
:1008A000074B074A5A60064B5B68054A1360044BC6
:1008B0004FF0FF329A60024B0022DA60704700BFAF
:1008C0001C2E002000B587B0039002910192009386
:1008D000FFF76EFF039B002B05D0019B002B02D07E
:1008E000029B002B02D11D48FFF7C6FF039B009A15
:1008F0001A61039B019ADA60194B1B68059307E0A4
:10090000059B9B68029AD31A0293059B1B6805936B
:10091000059B9A68029B9A42F2D3039B059A1A6040
:10092000039B1B685A68039B5A60039B5B68059A8C
:1009300003995160059A52681A60039B029A9A6063
:10094000059B074A934205D0059B9A68029BD21AE1
:10095000059B9A6007B05DF804FB00BFF0B6010884
:100960001C2E002000B583B00190FFF721FF019BF2
:10097000002B02D11348FFF77FFF019BDB68002BA0
:1009800002D11148FFF778FF019B1B680F4A934281
:1009900008D0019B1B68019A12689168019A9268BD
:1009A0000A449A60019B5B68019A12681A60019B75
:1009B0001B68019A52685A60019B0022DA6003B0FA
:1009C0005DF804FB00B7010810B701081C2E0020D9
:1009D00084B00190019B1B680393039B1A68019BE1
:1009E0001A60019B1B68019A5A60039B184604B069
:1009F000704700BF82B00190019B5B68019A12684A
:100A00001A60019B1B68019A52685A60019B184644
:100A100002B07047084B084A5A60074B5B68064AA9
:100A20001360054B00229A60034B034A5A61024B44
:100A30005B69014A136170472C2E002000B585B018
:100A40000190FFF7B5FE019B93F82030002B04D0F6
:100A5000019B93F820300E2B02D11348FFF70CFFB7
:100A6000019B002283F82020104B0393039B1B68FB
:100A70000393039B9A68019B9B689A42F6D2019B61
:100A8000039A1A60039B5A68019B5A60019B5B683A
:100A9000039A01995160039A52681A60019B1846A3
:100AA00005B05DF804FB00BF30B701082C2E002014
:100AB00000B585B003468DF80730FFF78DFE144B67
:100AC0009B690393039B9DF8072083F8202010481F
:100AD000FFF77EFF02460E4B9A610D4B9B69012288
:100AE00083F820200398FFF797FE6B46A3F12402BA
:100AF000039BDB699A4202D20648FFF7BDFE044B16
:100B00009B6918460399FFF743FC05B05DF804FBA9
:100B10002C2E002044B7010800B585B00190019B40
:100B20000393202383F31188FFF7DAFD039B93F8E7
:100B300020300D2B2CD801A252F823F0750B0008A1
:100B4000910B0008910B0008810B0008910B000825
:100B50008B0B0008910B0008910B0008910B00080B
:100B6000910B0008910B0008910B0008910B0008F5
:100B70008B0B0008FFF7CAFD002383F3118813E0F5
:100B8000039B9B6A9A6801329A600398FFF732FFD1
:100B9000039B4FF0FF329A620398FFF74FFFFFF776
:100BA000B5FD002383F3118805B05DF804FB00BF99
:100BB00000B589B0034600918DF80730FFF70CFEB1
:100BC000009BB3F1FF3F15D0104B9B6903AA104661
:100BD00000990F4AFFF776FE9DF807301846FFF799
:100BE00067FF069B002B04D003AB1846FFF7BAFE45
:100BF00005E004E09DF807301846FFF759FF034B66
:100C00009B699B6A184609B05DF804FB2C2E0020F6
:100C1000190B000800B585B001900091FFF7DCFDCD
:100C2000019B009A9A62019B9A68154B9B699B688D
:100C30009A4203D80198FFF701FF1DE0104B9B6912
:100C40001846FFF7FBFE03900D4A019B9361019B41
:100C5000012283F820200398FFF7DEFD6B46A3F105
:100C60002402039BDB699A4202D20648FFF704FE86
:100C700001980399FFF78CFB05B05DF804FB00BFFA
:100C80002C2E002044B7010808B5FFF7A5FD054B41
:100C90001B689A68034B9B699B689A4201D900F0D4
:100CA00031F808BD2C2E002000B583B0134B9B6992
:100CB00001931248FFF78CFE0246104B9A610F4BCE
:100CC0009B69012283F820200198FFF7B7FE019865
:100CD000FFF7A2FD6B46A3F12402019BDB699A4258
:100CE00002D20748FFF7C8FD044B9B6918460199DB
:100CF000FFF74EFB03B05DF804FB00BF2C2E002075
:100D000044B7010800B583B0204B9B6900931F488E
:100D1000FFF75EFE02461D4B9A611C4B9B69012248
:100D200083F82020009B002283F82020174B01939A
:100D3000019B1B680193019B9A68009B9B689A42E8
:100D4000F6D8009B019A1A60019B5A68009B5A6072
:100D5000009B5B68019A00995160019A52681A6081
:100D60000098FFF759FD6B46A3F12402009BDB6955
:100D70009A4202D20648FFF77FFD044B9B69184652
:100D80000099FFF705FB03B05DF804FB2C2E002053
:100D900044B7010808B5FFF7B5FF08BD0000000023
:100DA00082B001900091009B1A68019B1A60009B21
:100DB000019A1A6002B0704784B00190019B1B68D1
:100DC0000393039B1A68019B1A60039B184604B0A7
:100DD000704700BF82B001900091019B009A9A6019
:100DE000019B022283F82020019B002283F821200E
:100DF000019B009A5A64019B00221A64019B002205
:100E0000DA63019B00225A62019B012283F82220AF
:100E1000019B00229A61019B124A1A61114B5A6987
:100E2000019B5A61019B5B690E49019A4A610D4A17
:100E300052691A61019B03F12C02019BDA62019B4A
:100E400003F13002019B5A63019B5A6B019B1A63A9
:100E5000019B03F14C02019BDA61019B184602B031
:100E6000704700BF2C2E002084B0039002911346DF
:100E70008DF8073005E0039B5A1C03929DF807206C
:100E80001A70039A029B9A42F5D304B0704700BFD0
:100E900000B587B00390029101920093039B0593E4
:100EA000FFF786FC039B002B09D0029BB3F5C87F9C
:100EB00005D3019B7F2B02D8009B002B02D10F484A
:100EC000FFF7DAFC029B243B039A1A44059BDA6085
:100ED000059BDB68009A1A60059BDB68089A5A60DC
:100EE000059BDB68064A1A6205980199FFF772FFB5
:100EF0000346184607B05DF804FB00BF60B7010861
:100F0000A503000800B589B00590049103920293EF
:100F1000059B4C3305981946FF22FFF7A5FF059B5B
:100F200003F14C01059A049B1344084619465522C7
:100F3000FFF79AFF202383F31188FFF7A5FB0A9B95
:100F4000009305980499039A029BFFF7A1FF07906D
:100F500007980021FFF75EFEFFF7ACFB002383F349
:100F60001188079B184609B05DF804FB00B585B0F1
:100F70000190019B7F2B02D91648FFF77DFC2023AF
:100F800083F31188FFF780FB134B9B695B6C039322
:100F9000114B9B699A68104B9B695B6C9A4205D018
:100FA0000D4B9B699A68019B9A4203D20A4B9B693D
:100FB000019A9A60084B9B69019A5A64FFF764FE94
:100FC000FFF778FB002383F31188039B184605B0D5
:100FD0005DF804FB74B701082C2E002000B583B027
:100FE0000190202383F31188FFF74EFB019B93F8B8
:100FF0002030022B02D00848FFF73EFC0198002168
:10100000FFF708FEFFF756FB002383F31188019BCF
:10101000184603B05DF804FB8CB7010800B583B037
:101020000190202383F31188FFF72EFB019B93F897
:10103000213043F00403DAB2019B83F82120FFF74B
:1010400039FB002383F3118803B05DF804FB00BF74
:1010500000B583B00190019B002B02D10948FFF736
:101060000BFC202383F31188FFF70EFB0620019968
:10107000FFF79EFDFFF71EFB002383F3118803B0EB
:101080005DF804FBA0B7010800B583B001902023F0
:1010900083F31188FFF7F8FA094BDB68019AD31A3A
:1010A0000193019B002B03D006200199FFF780FDDF
:1010B000FFF700FB002383F3118803B05DF804FB06
:1010C0001C2E002008B5202383F31188FFF7DCFADB
:1010D000074B1B689A68064B9B699B689A4201D331
:1010E000FFF7E2FDFFF7E6FA002383F3118808BD5E
:1010F0002C2E002000B583B00190202383F31188AB
:10110000FFF7C2FA019800F003F803B05DF804FBA2
:1011100000B585B00190184B9B690393039B019A1E
:101120009A6208E0039B2C331846FFF745FE0346FE
:101130001846FFF783FC039BDA6A039B2C339A4221
:10114000F0D1039B93F8213003F00303002B09D166
:10115000039B5B69039A12691A61039B1B69039ADB
:1011600052695A610E20FFF7A3FC0448FFF784FB85
:1011700005B05DF804FB00BF2C2E0020B0B70108BD
:1011800000B585B00190019B002B02D11B48FFF7F1
:1011900073FB202383F31188FFF776FA184B9A69C3
:1011A000019B9A4202D11748FFF766FB019B93F817
:1011B0002230002B02D11448FFF75EFB019B93F80D
:1011C00020300E2B0AD00E4B9A69019B2C3310460F
:1011D0001946FFF7E5FD0720FFF76AFC019B9B6AB4
:1011E0000393FFF767FA002383F31188019800F057
:1011F00033F8039B184605B05DF804FBC4B701083B
:101200002C2E0020D4B70108E4B70108000000002C
:1012100000B583B00190202383F31188FFF734FADF
:10122000019B93F82230FF2B02D10A48FFF724FBE1
:10123000019B93F822300133DAB2019B83F822201C
:10124000FFF738FA002383F31188019B184603B097
:101250005DF804FB00B8010800B585B001902023BB
:1012600083F31188FFF710FA019B93F82230002BCB
:1012700002D12548FFF700FB019B93F82230013B88
:10128000DAB2019B83F82220019B93F822308DF87B
:101290000F30FFF70FFA002383F311889DF80F300A
:1012A000002B2DD1019B93F820300E2B28D1019BD0
:1012B00093F8213003F00303012B02D0022B0ED050
:1012C0001EE0019B5B69019A12691A61019B1B690F
:1012D000019A52695A61019802F0B0F910E0019B3D
:1012E0005B69019A12691A61019B1B69019A526933
:1012F0005A61019B9B6C1846019902F0F7FA00BFF6
:1013000005B05DF804FB00BF14B8010800B589B052
:1013100005900491039202930598049902F01CF938
:101320000790079B002B01D100232DE0079B4C3336
:1013300007981946FF22FFF797FD079B03F14C0121
:10134000079A049B1344084619465522FFF78CFD63
:10135000202383F31188FFF797F90A9B00930798DE
:101360000499039A029BFFF793FD0690069B0122C6
:1013700083F8212006980021FFF74CFCFFF79AF92B
:10138000002383F31188069B184609B05DF804FB1F
:1013900000B589B00590049103920293059B002B40
:1013A00002D12248FFF768FA059802F06BFA07901D
:1013B000079B002B01D1002333E0079B4C33079898
:1013C0001946FF22FFF750FD079B03F14C01059BD7
:1013D0005B68079A1344084619465522FFF744FDF7
:1013E000202383F31188FFF74FF9059B5A68029B6E
:1013F000009307981146049A039BFFF749FD069056
:10140000069B022283F82120069B059A9A6406987F
:101410000021FFF7FFFBFFF74DF9002383F311884D
:10142000069B184609B05DF804FB00BF28B8010808
:1014300000B583B0202383F31188FFF725F90A4B09
:101440001B690193019B93F822300133DAB2019BAF
:1014500083F82220FFF72EF9002383F31188019BE4
:10146000184603B05DF804FB2C2E002000B585B0B3
:101470000190202383F31188FFF706F9019B1B6974
:101480000393039B114A934202D1002303930FE07D
:10149000039B93F82230FF2B02D10D48FFF7ECF9A4
:1014A000039B93F822300133DAB2039B83F82220A6
:1014B000FFF700F9002383F311880198FFF7CCFEB2
:1014C000039B184605B05DF804FB00BF2C2E0020DE
:1014D00068B80108000000000000000000000000E3
:1014E00082B001900091019B009A1A60009B5A689B
:1014F000019B5A60019B5B68009A01995160009AB8
:1015000052681A6002B0704784B00190019B1B685A
:101510000393039B1A68019B1A60019B1B68019A45
:101520005A60039B184604B0704700BF84B0019016
:10153000019B5B680393039B5A68019B5A60019B64
:101540005B68019A1A60039B184604B0704700BF9D
:1015500000B583B001900091019B002B02D0009B4D
:10156000002B02DA0748FFF787F9019A019B5A60BE
:10157000019B5A68019B1A60019B009A9A6003B014
:101580005DF804FB80B8010800B583B001900091BC
:10159000202383F31188FFF777F80198009900F072
:1015A0000BF8FFF771FBFFF785F8002383F3118831
:1015B00003B05DF804FB00BF00B585B00190009159
:1015C000FFF7F6F8019B002B02D0009B002B02DAFC
:1015D0001948FFF751F9019B9B68002B04DB019B25
:1015E0001A68019B9A420BD0019B9B68002B04DA7E
:1015F000019B1A68019B9A4202D11048FFF73CF9FF
:10160000019B9B680393019B009A9A600BE0019BEE
:101610001846FFF78BFF03461846FFF70FFA0246FE
:101620006FF001039362039B01330393039B002B31
:10163000EDDD05B05DF804FB90B80108A0B8010825
:1016400000B585B00190202383F31188FFF71CF8C3
:10165000019800F00BF80390FFF72CF8002383F3B8
:101660001188039B184605B05DF804FB00B583B0F4
:101670000190FFF7B1F8019B002B02D11B48FFF747
:10168000FBF8019B9B68002B04DB019B1A68019B04
:101690009A420BD0019B9B68002B04DA019B1A68CD
:1016A000019B9A4202D11248FFF7E6F8019B9B6822
:1016B0005A1E019B9A60019B9B68002B11DA0D4B0F
:1016C0009B69019A9A620B4B9A69019B10461946D5
:1016D000FFF706FF0320FFF7EBF9064B9B699B6AB8
:1016E00000E00023184603B05DF804FBB4B801081D
:1016F000C4B801082C2E002000B585B001900091DF
:10170000202383F31188FEF7BFFF0198009900F0B2
:101710000BF80390FEF7CEFF002383F31188039BA1
:10172000184605B05DF804FB00B583B00190009148
:10173000FFF752F8019B002B02D12148FFF79CF8DC
:10174000019B9B68002B04DB019B1A68019B9A425A
:101750000BD0019B9B68002B04DA019B1A68019B4C
:101760009A4202D11748FFF787F8019B9B685A1EDF
:10177000019B9A60019B9B68002B1BDA009B002B4E
:1017800007D1019B9B685A1C019B9A604FF0FF3365
:1017900011E00D4B9B69019A9A620B4B9A69019B70
:1017A00010461946FFF79CFE03200099FFF700FA48
:1017B000034600E00023184603B05DF804FB00BFB9
:1017C000D8B80108F0B801082C2E002000B583B06D
:1017D0000190019B002B02D11B48FFF74DF8019BA4
:1017E0009B68002B04DB019B1A68019B9A420BD07B
:1017F000019B9B68002B04DA019B1A68019B9A42AB
:1018000002D11248FFF738F8202383F31188FEF73E
:101810003BFF019B9B685A1C019B9A60019B9B6844
:10182000002B08DC019B1846FFF76EFE03461846A6
:101830000021FFF7EFF9FEF73DFF002383F3118846
:1018400003B05DF804FB00BF08B9010818B901082E
:1018500000B585B00190FEF7ABFF019B002B02D1D4
:101860001748FFF709F8019B9B68002B04DB019BDD
:101870001A68019B9A420BD0019B9B68002B04DAEB
:10188000019B1A68019B9A4202D10E48FEF7F4FFB1
:10189000019B9B685A1C019B9A60019B9B68002BD3
:1018A0000ADC019B1846FFF72FFE0390039B0022E2
:1018B0009A620398FFF7C2F805B05DF804FB00BF19
:1018C0002CB9010840B9010800B583B0019000911E
:1018D000FEF76EFF019B002B02D0009B002B02DC69
:1018E0001A48FEF7C9FF019B9B68002B04DB019B94
:1018F0001A68019B9A420BD0019B9B68002B04DA6B
:10190000019B1A68019B9A4202D11148FEF7B4FF6D
:1019100016E0019B9B685A1C019B9A60019B9B6887
:10192000002B0ADC019B1846FFF7EEFD0346184624
:10193000FFF784F8024600239362009B013B00936B
:10194000009B002BE5DC03B05DF804FB54B90108F3
:101950006CB9010800B585B001900091019B002B86
:1019600002D0009B002B02D13748FEF785FF019B78
:101970009B68002B04DB019B1A68019B9A420BD0E9
:10198000019B9B68002B04DA019B1A68019B9A4219
:1019900002D12E48FEF770FF009B9B68002B04DBF2
:1019A000009B1A68009B9A420BD0009B9B68002BFF
:1019B00004DA009B1A68009B9A4202D12448FEF781
:1019C0005BFF202383F31188FEF75EFE019B9B687B
:1019D0005A1C019B9A60019B9B68002B0ADC019BAF
:1019E0001846FFF791FD03461846FFF727F8024611
:1019F00000239362009B9B685A1E009B9A60009B89
:101A00009B68002B11DA134B9B690293009B029891
:101A10001946FFF765FD029B009A9A620320FFF7C3
:101A200047F8029B9B6A039303E0FFF72DF900231D
:101A30000393FEF73FFE002383F31188039B1846B0
:101A400005B05DF804FB00BF84B9010898B901082E
:101A5000B0B901082C2E002000000000000000009A
:101A600084B001900091009B0393039B1B68039338
:101A7000039A009B9A4205D0039B9A68019B9B683E
:101A80009A42F2D2019B039A1A60039B5A68019B07
:101A90005A60019B5B68039A01995160039A5268EE
:101AA0001A6004B0704700BF84B00190019B1B68AE
:101AB0000393039B1A68019B1A60019B1B68019AA0
:101AC0005A60039B184604B0704700BF82B0019073
:101AD000019B5B68019A12681A60019B1B68019A5E
:101AE00052685A60019B184602B0704700B583B037
:101AF0000190019B002B02D10748FEF7BDFE019A21
:101B0000019B5A60019B5A68019B1A60019B00224D
:101B10009A6003B05DF804FBD0B9010800B583B04A
:101B20000190202383F31188FEF7AEFD019800F0A9
:101B300009F8FEF7BFFD002383F3118803B05DF8B9
:101B400004FB00BF00B585B001903C4B9B6902933C
:101B5000FEF742FE019B002B02D13948FEF78CFEB6
:101B6000019B9B68002B5BD0019B9B68039334E037
:101B7000029B9A68039B9A60039B93F82030042B86
:101B800004D0052B11D0002B1AD02CE00398FFF7BE
:101B90009DFF0246039B9B6A10461946FFF760FFB4
:101BA000039B9B6A9B68039317E00398FFF78EFFE4
:101BB0000246039B9B6A10461946FFF751FF0BE054
:101BC000039B012283F820200398FFF77FFF034641
:101BD0001846FEF733FF00BF05E0039B9A68029B9F
:101BE0009B689A42C4D3019B02981946FFF738FFBD
:101BF000029B019A9A620420FEF75AFF019B9A68A1
:101C0000029B9A4202D00F48FEF736FE029B1A6CE6
:101C1000019B9A4203D00C48FEF72EFE0AE009E031
:101C2000019B029A9A60029B1A6C019BDA60029BEC
:101C3000019A1A6405B05DF804FB00BF2C2E002049
:101C4000E0B90108F0B9010804BA010800B585B08F
:101C50000190202383F31188FEF716FD019800F010
:101C60000FF803468DF80F30FEF724FD002383F3B1
:101C700011889DF80F30184605B05DF804FB00BFD1
:101C800000B583B00190FEF7A7FD019B002B02D1A8
:101C90000D48FEF7F1FD019B9B68002B01D000234E
:101CA0000DE00A4B9A69019B9A60084B9B691A6C7C
:101CB000019BDA60054B9B69019A1A64012318465F
:101CC00003B05DF804FB00BF18BA01082C2E0020F9
:101CD00000B587B0314B9B690393202383F31188B0
:101CE000FEF7D2FC039B1B6C002B02D12C48FEF7A5
:101CF000C3FD039B1B6C9A68039B9A4202D0294840
:101D0000FEF7BAFD039B1B6C0293029BDA68039BF0
:101D10001A64029B1A68029B9A4232D0039B5B6C46
:101D20000493039B1B6C059311E0059B1A68059BAC
:101D30009A4209D0059B1B689A68049B9A4203D972
:101D4000059B1B689B680493059BDB680593059BBB
:101D5000002BEAD1039B049A9A60029B1846FFF776
:101D6000A3FE0190029B019A9A60019B1A6C029B50
:101D7000DA60019B029A1A6401980021FEF74AFF7B
:101D800002E0029B00229A60FEF794FC002383F39A
:101D90001188029B184607B05DF804FB2C2E00202A
:101DA0002CBA010840BA010800B587B02D4B9B69D9
:101DB0000393FEF711FD039B1B6C002B02D12A48F5
:101DC000FEF75AFD039B1B6C9A68039B9A4202D054
:101DD0002648FEF751FD039B1B6C0293029BDA68B9
:101DE000039B1A64029B1A68029B9A4231D0039BA0
:101DF0005B6C0493039B1B6C059311E0059B1A68B5
:101E0000059B9A4209D0059B1B689A68049B9A42DD
:101E100003D9059B1B689B680493059BDB680593AE
:101E2000059B002BEAD1039B049A9A60029B1846FB
:101E3000FFF73AFE0190029B019A9A60019B1A6C8F
:101E4000029BDA60019B029A1A640198FEF7F6FD84
:101E500002E0029B00229A60029B184607B05DF8E0
:101E600004FB00BF2C2E002054BA010868BA0108F8
:101E700000B585B01F4B9B690393202383F3118822
:101E8000FEF702FC039B1B6C002B2BD0039B1B6CEF
:101E90000293029BDA68039B1A64029B1A68029BF6
:101EA0009A4212D0029B1846FFF7FEFD0190029B5A
:101EB000019A9A60019B1A6C029BDA60019B029A5C
:101EC0001A640198FEF7BAFD02E0029B00229A60B4
:101ED000039B1B6C002BD9D1039B5A6C039B9A600C
:101EE000FEF7D2FEFEF7E6FB002383F3118805B070
:101EF0005DF804FB2C2E0020000000000000000014
:101F000084B001900091009B0393039B1B68039393
:101F1000039A009B9A4205D0039B9A68019B9B6899
:101F20009A42F2D2019B039A1A60039B5A68019B62
:101F30005A60019B5B68039A01995160039A526849
:101F40001A6004B0704700BF84B00190019B1B6809
:101F50000393039B1A68019B1A60019B1B68019AFB
:101F60005A60039B184604B0704700BF00B583B0A9
:101F70000190019B002B02D10648FEF77DFC019ADF
:101F8000019B5A60019B5A68019B1A6003B05DF87F
:101F900004FB00BF80BA010800B583B00190019B2B
:101FA000002B02D10E48FEF767FC202383F3118833
:101FB000FEF76AFB019B1A68019B9A4208D0019BBD
:101FC0001846FFF7C1FF034618460021FEF722FE20
:101FD000FEF770FB002383F3118803B05DF804FB68
:101FE00090BA010800B583B00190FEF7E1FB019BB8
:101FF000002B02D10A48FEF73FFC019B1A68019BA7
:102000009A420AD0019B1846FFF79EFF03461846E6
:10201000FEF714FD02460023936203B05DF804FB53
:10202000A4BA010800B583B00190202383F311887E
:10203000FEF72AFB019800F00BF8FEF725FEFEF7ED
:1020400039FB002383F3118803B05DF804FB00BF64
:1020500000B583B00190FEF7ABFB019B002B02D1D2
:102060000B48FEF709FC0BE0019B1846FFF76CFFDD
:1020700003461846FEF7E2FC02466FF00103936246
:10208000019B1A68019B9A42EED103B05DF804FBF4
:10209000B8BA010800B585B00190202383F31188F8
:1020A000FEF7F2FA019800F00BF80390FEF702FB3E
:1020B000002383F31188039B184605B05DF804FBE9
:1020C00000B587B00190154B9B690593FEF784FB23
:1020D000019B002B02D11248FEF7CEFB059B1B6C27
:1020E000002B02D10F48FEF7C7FBFFF75DFE0490FF
:1020F000059B019A9A62019B05981946FFF700FF1C
:102100000520FEF7D5FC059B9B6A03930498FFF717
:1021100019FD039B184607B05DF804FB2C2E002028
:10212000D0BA0108E0BA010800B585B0019000916D
:10213000202383F31188FEF7A7FA0198009900F095
:102140000BF80390FEF7B6FA002383F31188039B84
:10215000184605B05DF804FB00B585B0019000910C
:10216000FEF73AFB019B002B02D0009B002B02D113
:102170001448FEF781FB144B9B691B6C002B02D1AA
:102180001248FEF779FBFFF70FFE03900E4B9B6999
:10219000019A9A620C4B9A69019B10461946FFF707
:1021A000AFFE05200099FEF703FD0290029BB3F1FC
:1021B000FF3F02D00398FFF7C5FC029B184605B00D
:1021C0005DF804FBF4BA01082C2E00200CBB0108BA
:1021D00000B585B0039002910192039B002B02D0C1
:1021E000029B002B02D11048FEF746FB202383F30D
:1021F0001188FEF749FA039B1A68029B1A60039B39
:10220000029A1A60094B9A69029B5A60029B019AD2
:102210009A60029B0022DA60FEF74CFA002383F3F7
:10222000118805B05DF804FB30BB01082C2E00209E
:1022300000B585B001900091019B002B02D0009B5E
:10224000002B02D11248FEF717FB019B03932023BA
:1022500083F31188FEF718FA0CE0039B1A68009BC1
:102260009A4204D1009B1A68039B1A6007E0039B03
:102270001B680393039B1A68019B9A42EDD1FEF7FA
:1022800019FA002383F3118805B05DF804FB00BF41
:1022900048BB010800B585B00190202383F3118865
:1022A000FEF7F2F90C4B9B69DA6B019B1340039329
:1022B000094B9B69084A9269D16B019AD2430A4043
:1022C000DA63FEF7F7F9002383F31188039B1846BE
:1022D00005B05DF804FB00BF2C2E002000B583B0D4
:1022E0000190202383F31188FEF7CEF9094B9B69F7
:1022F000084A9269D16B019A0A43DA63DB6B019356
:10230000FEF7D8F9002383F31188019B184603B028
:102310005DF804FB2C2E002000B585B001900091E3
:10232000FEF746FA019B002B02D10F48FEF7A4FAF4
:10233000019B1B68039310E0039BDA68009B1A4320
:10234000039BDA60039B5A68039B9B6810461946FF
:1023500000F044F8039B1B680393039A019B9A4285
:10236000EAD105B05DF804FB5CBB010800B585B09F
:102370000190202383F31188FEF786F9019BDB6827
:102380000393019B0022DA60FEF794F9002383F3A4
:102390001188039B184605B05DF804FB00B583B0B7
:1023A00001900091019B002B02D10B48FEF764FACB
:1023B000202383F31188FEF767F90198009900F054
:1023C0000DF8FEF761FCFEF775F9002383F3118821
:1023D00003B05DF804FB00BF74BB010800B583B017
:1023E00001900091FEF7E4F9019B002B02D1164801
:1023F000FEF742FA019BDA6B009B1A43019BDA63FA
:10240000019B93F82030082B06D1019BDA6B019BCE
:102410009B6A1340002B0DD1019B93F82030092BB0
:102420000ED1019BDA6B019B9B6A1A40019B9B6A50
:102430009A4205D10198FEF701FB02460023936200
:1024400003B05DF804FB00BF84BB010800B583B096
:1024500001900091202383F31188FEF715F901986C
:102460000099FFF759FFFEF70FFCFEF723F9002351
:1024700083F3118803B05DF804FB00BF84B00190C2
:10248000019BDB680393019B0022DA60039B1846E3
:1024900004B0704700B585B001900091019B002BFE
:1024A00002D11848FEF7E8F90023039324E0012243
:1024B000039B02FA03F31A46009B1340002B18D02B
:1024C000039B9B00019A13441B68002B02D10E480A
:1024D000FEF7D2F90122039B02FA03F3DB43009AD1
:1024E00013400093039B9B00019A13441B680398BD
:1024F0009847039B01330393009B002BD7D105B072
:102500005DF804FB98BB0108ACBB010800B585B0C1
:102510000190184B9B690293202383F31188FEF7E7
:10252000B3F8029BDA6B019B13400393039B002BD0
:102530000AD1029B019A9A620820FEF7B9FA029B1F
:10254000DA6B019B13400393039B5B42039A134096
:102550000393029BDA6B039BDB431A40029BDA6313
:10256000FEF7A8F8002383F31188039B184605B0F3
:102570005DF804FB2C2E002000B585B00190164BB1
:102580009B690293202383F31188FEF77DF8029B59
:10259000DA6B019B13400393039B002B0AD1029B30
:1025A000019A9A620820FEF783FA029BDA6B019B7C
:1025B00013400393029BDA6B039BDB431A40029B9D
:1025C000DA63FEF777F8002383F31188039B18463C
:1025D00005B05DF804FB00BF2C2E002000B585B0CF
:1025E0000190134B9B690393202383F31188FEF71B
:1025F0004BF8039BDA6B019B1A40019B9A4205D072
:10260000039B019A9A620920FEF752FA039BDA6B48
:10261000019BDB431A40039BDA63FEF74BF8002370
:1026200083F31188019B184605B05DF804FB00BFD9
:102630002C2E002000B585B001900091224B9B69A3
:102640000293202383F31188FEF71EF8029BDA6BB6
:10265000019B13400393039B002B1FD1009B002B76
:1026600006D1FEF727F8002383F31188002327E023
:10267000029B019A9A6208200099FEF799FA034694
:10268000002B06DAFEF716F8002383F311880023E7
:1026900016E0029BDA6B019B13400393039B5B42A2
:1026A000039A13400393029BDA6B039BDB431A40AC
:1026B000029BDA63FDF7FEFF002383F31188039B7F
:1026C000184605B05DF804FB2C2E002000B585B03F
:1026D00001900091204B9B690293202383F3118882
:1026E000FDF7D2FF029BDA6B019B13400393039B20
:1026F000002B1FD1009B002B06D1FDF7DBFF002331
:1027000083F31188002322E0029B019A9A62082039
:102710000099FEF74DFA0346002B06DAFDF7CAFFD3
:10272000002383F31188002311E0029BDA6B019BE5
:1027300013400393029BDA6B039BDB431A40029B1B
:10274000DA63FDF7B7FF002383F31188039B184674
:1027500005B05DF804FB00BF2C2E002000B585B04D
:10276000019000911D4B9B690393202383F31188F3
:10277000FDF78AFF039BDA6B019B1A40019B9A428B
:102780001AD0009B002B06D1FDF794FF002383F3A2
:10279000118800231DE0039B019A9A620920009989
:1027A000FEF706FA0346002B06DAFDF783FF002347
:1027B00083F3118800230CE0039BDA6B019BDB435E
:1027C0001A40039BDA63FDF775FF002383F311883A
:1027D000019B184605B05DF804FB00BF2C2E0020BD
:1027E00082B001900091019B009A1A60009B5A6888
:1027F000019B5A60019B5B68009A01995160009AA5
:1028000052681A6002B0704784B00190019B1B6847
:102810000393039B1A68019B1A60019B1B68019A32
:102820005A60039B184604B0704700BF00B585B0DE
:1028300001900091194B9B690393019B002B02D1DE
:102840001748FEF719F8202383F31188FDF71CFFC2
:10285000039B009A9A63019B03F13002039B9A62E7
:10286000019B303303981946FFF7BAFF019B93F899
:1028700020300C2B02D10198FEF7E0F80A20FEF779
:1028800017F9039B9B6A0093FDF714FF002383F362
:102890001188009B184605B05DF804FB2C2E002023
:1028A000C0BB010800B583B0202383F31188FDF776
:1028B000EBFE104B9B691A6B0E4B9B6930339A42AF
:1028C00002D10C20FEF7F4F80A4B9B69303318460E
:1028D000FFF79AFF0190019B0B2283F82020FDF760
:1028E000E9FE002383F31188019B184603B05DF8CD
:1028F00004FB00BF2C2E002000B583B00190009196
:10290000202383F31188FDF7BFFE019B93F820304D
:102910000B2B02D00748FDF7AFFF01980099FEF797
:1029200079F9FDF7C7FE002383F3118803B05DF842
:1029300004FB00BFD0BB0108000000000000000045
:1029400000B585B0039002910192039B002B05D046
:10295000029B002B02D0019B002B02DC1148FDF7EB
:102960008BFF039B029ADA60039BDA68039B9A60F1
:10297000039B9A68039B1A60019B9B00029A1A446E
:10298000039B5A60039B1C3318460199FEF7E0FD38
:10299000039B103318460021FEF7DAFD05B05DF801
:1029A00004FB00BFF0BB010800B583B00190019BA0
:1029B000002B02D11648FDF75FFF202383F3118817
:1029C000FDF762FE019B1A68019BDA60019BDA68E1
:1029D000019B9A60019B03F11C02019B5B681946F5
:1029E000019B1B68CB1A9B1010461946FEF7E4FDAD
:1029F000019B103318460021FEF7DEFDFEF744F977
:102A0000FDF758FE002383F3118803B05DF804FB43
:102A100000BC010800B587B0039002910192202309
:102A200083F31188FDF730FE03980299019A00F0B4
:102A30000BF80590FDF73EFE002383F31188059BFC
:102A4000184607B05DF804FB00B587B0039002910B
:102A50000192FDF7C1FE039B002B02D11448FDF744
:102A60000BFF039B1C3318460199FEF75DFE059092
:102A7000059B002B17D1039B9B68191D039A91603E
:102A8000029A1A60039B9A68039B5B689A4203D37D
:102A9000039B1A68039B9A60039B10331846FEF74A
:102AA000D7FEFEF7F1F8059B184607B05DF804FB6A
:102AB00010BC010800B583B001900091FDF778FECD
:102AC000019B002B02D11548FDF7D6FE019B5B6AE6
:102AD000002B02DC4FF0FF331BE0019B5B6A5A1EA8
:102AE000019B5A62019B9B68191D019A9160009A93
:102AF0001A60019B9A68019B5B689A4203D3019B11
:102B00001A68019B9A60019B10331846FEF7A0FEDD
:102B10000023184603B05DF804FB00BF20BC010889
:102B200000B587B0039002910192202383F31188AE
:102B3000FDF7AAFD03980299019A00F00BF80590A1
:102B4000FDF7B8FD002383F31188059B184607B0F5
:102B50005DF804FB00B587B0039002910192FDF788
:102B60003BFE039B002B02D11648FDF785FE039B1D
:102B70001C3318460199FEF7D7FD0590059B002BE5
:102B80001AD1039BDB681A1F039BDA60039BDA6888
:102B9000039B1B689A4204D2039B5B681A1F039B2A
:102BA000DA60039BDB68029A1A60039B10331846B5
:102BB000FEF74EFEFEF768F8059B184607B05DF875
:102BC00004FB00BF30BC010800B583B00190009148
:102BD000FDF7EEFD019B002B02D11648FDF74CFEE0
:102BE000019B5B6A002B02DC4FF0FF331EE0019B70
:102BF0005B6A5A1E019B5A62019BDB681A1F019B8C
:102C0000DA60019BDA68019B1B689A4204D2019B3F
:102C10005B681A1F019BDA60019BDB68009A1A60EF
:102C2000019B10331846FEF713FE0023184603B02D
:102C30005DF804FB44BC010800B587B00390029125
:102C40000192202383F31188FDF71EFD039802995A
:102C5000019A00F00BF80590FDF72CFD002383F39B
:102C60001188059B184607B05DF804FB00B587B0D6
:102C7000039002910192FDF7AFFD039B002B02D060
:102C8000029B002B02D11548FDF7F6FD039B103384
:102C900018460199FEF748FD0590059B002B18D1B9
:102CA000039BDB68191D039AD1601A68029B1A60A6
:102CB000039BDA68039B5B689A4203D3039B1A6801
:102CC000039BDA60039B1C331846FEF7C1FDFDF73A
:102CD000DBFF059B184607B05DF804FB58BC0108F4
:102CE00000B583B001900091FDF762FD019B002BC0
:102CF00002D0009B002B02D11548FDF7BDFD019BC2
:102D00009B69002B02DC4FF0FF331CE0019B9B69A9
:102D10005A1E019B9A61019BDB68191D019AD160C3
:102D20001A68009B1A60019BDA68019B5B689A42F3
:102D300003D3019B1A68019BDA60019B1C33184680
:102D4000FEF786FD0023184603B05DF804FB00BFC4
:102D500068BC010800000000000000000000000046
:102D600082B001900091019B009A1A60009B5A6802
:102D7000019B5A60019B5B68009A01995160009A1F
:102D800052681A6002B0704784B00190019B1B68C2
:102D90000393039B1A68019B1A60019B1B68019AAD
:102DA0005A60039B184604B0704700BF00B583B05B
:102DB00001900091009B002B02D14FF0FF330FE0F8
:102DC000094B9B69019A9A62074B9A69019B1046CD
:102DD0001946FFF7C5FF0D200099FDF7E9FE0346F0
:102DE000184603B05DF804FB2C2E002084B003903D
:102DF000029101920093039A039B5A60039B5A68C5
:102E0000039B1A60039B00229A60039B029A5A61FB
:102E1000039B5A69039B9A61039B9A69039BDA603F
:102E2000029A019B1A44039B1A61039B009ADA6180
:102E3000039B049A1A6204B0704700BF00B583B0C8
:102E40000190FDF7B5FC019BDA68019B5A61019B7B
:102E50005A69019B9A61019B00229A600BE0019BD9
:102E60001846FFF791FF03461846FDF7E7FD0246B7
:102E70006FF001039362019B1A68019B9A42EED1A5
:102E800003B05DF804FB00BF00B583B001900B46B2
:102E90008DF80330FDF78CFC019B5A69019B9B69FF
:102EA0009A4205D1019B9B68002B01D0012300E0D1
:102EB000002303F00103DBB2002B02D06FF0030309
:102EC00027E0019B9B685A1C019B9A60019B5B69F0
:102ED000591C019A51619DF803201A70019B5A698F
:102EE000019B1B699A4203D3019BDA68019B5A61DB
:102EF000019B1A68019B9A420AD0019B1846FFF772
:102F000043FF03461846FDF799FD024600239362EE
:102F10000023184603B05DF804FB00BF00B585B080
:102F200001900091202383F31188FDF7ADFB019BF5
:102F3000DB69002B03D0019BDB69019898470EE009
:102F400001980099FFF732FF0390039B002B06DAEC
:102F5000FDF7B0FB002383F31188039B21E0019B65
:102F60009B68002BECD0019B9B685A1E019B9A60CA
:102F7000019B9B69591C019A91611B788DF80B305C
:102F8000019B9A69019B1B699A4203D3019BDA68F2
:102F9000019B9A61FDF78EFB002383F311889DF856
:102FA0000B30184605B05DF804FB00BF00B587B0D4
:102FB0000390029101920093039BDB690493002329
:102FC0000593019B002B02D12948FDF755FC2023D6
:102FD00083F31188FDF758FB049B002B02D0049B60
:102FE000039898470DE003980099FFF7DFFE03462A
:102FF000002B06D0FDF75EFB002383F31188059BB1
:1030000032E0039B9B68002BEDD0039B9B685A1E0C
:10301000039B9A60029B5A1C0292039A9269501C6D
:103020000399886112781A70039B9A69039B1B6944
:103030009A4203D3039BDA68039B9A61FDF73AFB3C
:10304000002383F31188059B01330593019B013B0A
:103050000193019B002B01D1059B05E0202383F305
:103060001188FDF711FBB7E7184607B05DF804FBC0
:1030700080BC010884B00390029101920093039AEE
:10308000039B5A60039B5A68039B1A60039B019A37
:103090009A60039B029A5A61039B5A69039B9A6147
:1030A000039B9A69039BDA60029A019B1A44039B73
:1030B0001A61039B009ADA61039B049A1A6204B0B6
:1030C000704700BF00B583B00190FDF771FB019B15
:1030D000DA68019B5A61019B5A69019B9A61019BC5
:1030E0001B691A46019BDB68D31A1A46019B9A603A
:1030F0000BE0019B1846FFF747FE03461846FDF715
:103100009DFC02466FF001039362019B1A68019BCC
:103110009A42EED103B05DF804FB00BF00B587B062
:1031200003900B4601928DF80B30202383F3118816
:10313000FDF7AAFA0EE003980199FFF737FE059014
:10314000059B002B06DAFDF7B5FA002383F31188FF
:10315000059B28E0039B9B68002BECD0039B9B689E
:103160005A1E039B9A60039B5B69591C039A516129
:103170009DF80B201A70039B5A69039B1B699A42A6
:1031800003D3039BDA68039B5A61039BDB69002B23
:1031900003D0039BDB6903989847FDF78BFA002364
:1031A00083F311880023184607B05DF804FB00BFC5
:1031B00000B585B00190FDF7FBFA019B5A69019BB0
:1031C0009B699A4205D1019B9B68002B01D001238A
:1031D00000E0002303F00103DBB2002B02D06FF00C
:1031E000020328E0019B9B685A1C019B9A60019B8B
:1031F0009B69591C019A91611B788DF80F30019BD6
:103200009A69019B1B699A4203D3019BDA68019B6F
:103210009A61019B1A68019B9A420AD0019B184649
:10322000FFF7B2FD03461846FDF708FC02460023EF
:1032300093629DF80F30184605B05DF804FB00BF9F
:1032400000B587B00390029101920093039BDB6964
:10325000049300230593019B002B02D12948FDF71D
:103260000BFB202383F31188FDF70EFA0DE0039882
:103270000099FFF79BFD0346002B06D0FDF71AFAD5
:10328000002383F31188059B38E0039B9B68002B88
:10329000EDD0039B9B685A1E039B9A60039B5B695E
:1032A000591C039A5161029A511C029112781A70AA
:1032B000039B5A69039B1B699A4203D3039BDA68F9
:1032C000039B5A61049B002B02D0049B03989847F0
:1032D000FDF7F0F9002383F31188059B0133059373
:1032E000019B013B0193019B002B01D1059B05E054
:1032F000202383F31188FDF7C7F9B7E7184607B015
:103300005DF804FB94BC0108000000000000000010
:10331000084B073323F007031A46074B1A60074B85
:1033200023F007031A46064B1A60054B1B68054A33
:1033300013607047583400203411002000A0002092
:10334000381100203C11002000B585B001902023E9
:1033500083F31188FDF798F9019800F00BF80390BA
:10336000FDF7A8F9002383F31188039B184605B0E5
:103370005DF804FB00B585B00190FDF719FA019BDB
:10338000073323F0070301930C4B1B681A460C4BC1
:103390001B68D31A1A46019B9A4201D2002309E006
:1033A000074B1B680393064B1A68019B1344044A9E
:1033B0001360039B184605B05DF804FB381100202C
:1033C00034110020034B1B681A46034B1B68D31AA9
:1033D00018467047381100203411002000B585B020
:1033E0000190202383F31188FDF74EF9019800F036
:1033F0000BF80390FDF75EF9002383F31188039B1C
:10340000184605B05DF804FB00B583B00190FDF7E8
:10341000CFF9019B073323F0070301930C4B1B6883
:103420001A460C4B1B68D31A1A46019B9A4201D2CA
:10343000002308E0064B1A68019B5B421344044AD0
:103440001360034B1B68184603B05DF804FB00BF14
:10345000381100203411002000B585B001902023E0
:1034600083F31188FDF710F9019800F00BF8039031
:10347000FDF720F9002383F31188039B184605B05C
:103480005DF804FB00B583B00190FDF791F9019B55
:10349000073323F0070301930B4B1B681A460B4BB2
:1034A0001B68D31A1A46019B9A4201D2002307E0F7
:1034B000064B1A68019B1344044A1360034B1B68B4
:1034C000184603B05DF804FB3C11002038110020C1
:1034D00008B5064B064A1A60044B00229A60034B5B
:1034E0000022DA600348FEF701FB08BD401100200E
:1034F000493300085011002000B587B003900291B5
:103500000192029B03F00703002B04D1019B03F0FF
:103510000703002B02D00F48FDF7AEF9039B0022F2
:103520001A60029B0593039B059A9A60039B0022F5
:10353000DA60059B00221A60019BA3F10802059B3B
:103540005A60039B10331846FEF7D0FA07B05DF8B7
:1035500004FB00BFB0BC010800B587B0019000912A
:10356000019B002B01D1344B0193009B073323F0C7
:1035700007030093019B08330593019B1033184602
:10358000FEF7CCFA33E0059B1B680493049B5A6852
:10359000009B9A4229D3049B5A68009B08339A42A5
:1035A00004D2049B1A68059B1A6016E0009B08333E
:1035B000049A13440393049B1A68039B1A60049BA8
:1035C0005A68009BD31AA3F10802039B5A60059B1B
:1035D000039A1A60049B009A5A60049B019A1A602D
:1035E000FEF776FB049B083321E0049B0593059BC3
:1035F0001B68002BC7D1FEF76BFB019B1B68002BE0
:1036000014D0019B1B68009A08321046984704901A
:10361000049B002B0AD0049B019A1A60049B009A19
:103620005A60049B08330493049B00E0002318466F
:1036300007B05DF804FB00BF4011002000B587B063
:103640000190019B002B02D13948FDF715F9019B30
:10365000083B0493049B1B680393039B0833059367
:10366000039B10331846FEF759FA049A059B9A42B9
:103670000AD3059B5B680833059A1A44049B9A4257
:1036800002D92C48FDF7F8F8039B03F10802059BCB
:103690009A4203D0049A059B9A423ED9059B1B6827
:1036A000002B04D0059B1A68049B9A4235D9059BD0
:1036B0001A68049B1A60059B049A1A60049B5B6855
:1036C0000833049A1A44049B1B689A420ED1049B47
:1036D0005A68049B1B685B68134403F10802049B4F
:1036E0005A60049B1B681A68049B1A60059B5B6800
:1036F0000833059A1A44049B9A420DD1059B5A68D7
:10370000049B5B68134403F10802059B5A60049B09
:103710001A68059B1A6004E003E0059B1B6805938B
:10372000A3E7FEF7D5FA00BF07B05DF804FB00BFC2
:10373000C0BC0108D0BC010800B587B00190009161
:10374000019B002B01D1164B0193019B10331846AE
:10375000FEF7E4F90023039300230493019B08334D
:1037600005930BE0059B1B685B68039A1344039366
:10377000049B01330493059B1B680593059B1B6801
:10378000002BEFD1009B002B02D0009B039A1A6004
:10379000FEF79EFA049B184607B05DF804FB00BFD5
:1037A00040110020000000000000000000000000A8
:1037B00000B585B0039002910192039B002B02D0CB
:1037C000029B032B02D80748FDF756F8039B002203
:1037D0001A60039B029A5A60039B019A9A6005B093
:1037E0005DF804FBF0BC010800B585B003900291C0
:1037F0000192039B002B02D0019B002B02D10B48AE
:10380000FDF73AF80BE00398029900F06FF8039B7C
:103810005B68029A13440293019B013B0193019B55
:10382000002BF0D105B05DF804FB00BF00BD01081E
:1038300000B585B00190FCF7BBFF019B002B02D1C6
:103840000F48FDF719F8019B1B680393039B002B9E
:1038500005D0019B1B681A68019B1A600AE0019B56
:103860009B68002B06D0019B9B68019A526810460A
:1038700098470390039B184605B05DF804FB00BF12
:1038800014BD010800B585B00190202383F3118891
:10389000FCF7FAFE0198FFF7CBFF0390FCF70AFF55
:1038A000002383F31188039B184605B05DF804FBE1
:1038B00000B585B001900091009B0393FCF778FF61
:1038C000019B002B02D0009B002B02D10648FCF785
:1038D000D3FF019B1A68039B1A60019B039A1A602D
:1038E00005B05DF804FB00BF28BD010800B583B03A
:1038F00001900091202383F31188FCF7C5FE019805
:103900000099FFF7D5FFFCF7D5FE002383F311885C
:1039100003B05DF804FB00BF0000000000000000E1
:1039200008B502F055FB084802F024FC00F058F8F6
:1039300000F0C2FA00F064FF01F028FC00F016FD70
:1039400004F062FC08BD00BF90C4010884B001907F
:103950000091134B5B680393009A019B9A420ED926
:10396000039A019B9A4205D3039A009B9A4201D283
:10397000012300E0002303F00103DBB20DE0039A12
:10398000019B9A4203D2039A009B9A4201D20123DF
:1039900000E0002303F00103DBB2184604B07047D7
:1039A000001000E000B585B00190094B5B680393FF
:1039B000039A019B1344029300BF03980299FFF7F7
:1039C000C5FF0346002BF8D105B05DF804FB00BF2E
:1039D000001000E0000000000000000000000000F7
:1039E00008B502F0E9FE08BD00B583B00190019B67
:1039F00001221A70019B00225A60019B0C33184669
:103A0000FEF774F803B05DF804FB00BF00B583B0A7
:103A100001900091019B002B02D0009B002B02D152
:103A20001348FCF729FF019B1B78012B0AD0019B4F
:103A30001B78022B06D0019B1B78052B02D00D486A
:103A4000FCF71AFF202383F31188FCF71DFE019B6E
:103A5000009A5A60019802F0C9FE019B02221A7076
:103A6000FCF728FE002383F3118803B05DF804FB04
:103A700040BD010850BD010800B583B00190019B15
:103A8000002B02D11248FCF7F7FE019B1B78012B9B
:103A90000AD0019B1B78022B06D0019B1B78052BBB
:103AA00002D00C48FCF7E8FE202383F31188FCF7D2
:103AB000EBFD019802F034FF019B01221A70FCF724
:103AC000F9FD002383F3118803B05DF804FB00BF08
:103AD00060BD01086CBD010800B583B00190019B79
:103AE000002B02D10448FCF7C7FE019B9B681846D7
:103AF00003B05DF804FB00BF7CBD010800B58BB0CE
:103B00000790059204930B46ADF81A30079B002BE3
:103B100015D0BDF81A30002B11D0049B002B0ED00D
:103B2000059B002B0BD00D9B002B05D00D9B002B74
:103B300005D00C9B002B02D00E9B002B02D11C4801
:103B4000FCF79AFE079B1B78022B02D01948FCF762
:103B500093FE202383F31188FCF796FD079B002238
:103B60009A60079B03221A70BDF81A200C9B0093E1
:103B70000D9B01930E9B029307981146059A049B97
:103B800002F0B2FF0990099BB3F1FF3F03D1079BFD
:103B900005221A7002E0079B02221A70FCF78AFDC8
:103BA000002383F31188099B18460BB05DF804FBD2
:103BB00090BD0108B0BD010800B589B00590039221
:103BC00002930B46ADF81230059B002B0CD0BDF8CC
:103BD0001230002B08D0029B002B05D0039B002B3A
:103BE00002D00A9B002B02D11A48FCF745FE059B28
:103BF0001B78022B02D01848FCF73EFE202383F3EB
:103C00001188FCF741FD059B00229A60059B042268
:103C10001A70BDF812200A9B009305981146039A6A
:103C2000029B02F0A9FE0790079BB3F1FF3F03D16F
:103C3000059B05221A7002E0059B02221A70FCF710
:103C400039FD002383F31188079B184609B05DF8FE
:103C500004FB00BFD0BD0108ECBD010800B583B076
:103C60000190019B002B02D10548FCF705FE019B4A
:103C70000C331846FDF752FF03B05DF804FB00BF9C
:103C800004BE010800B583B00190019B002B02D156
:103C90000348FCF7F1FDFEF71BF803B05DF804FBE9
:103CA00018BE010800000000000000000000000035
:103CB00000B583B00190019B002B03D0019B9B6852
:103CC0000F2B02D90848FCF7D7FD019B1B681B6925
:103CD000019A926823FA02F2019B5B68134018462E
:103CE00003B05DF804FB00BF30BE010800B583B02F
:103CF00001900091019B002B03D0019B9B680F2B2F
:103D000002D90D48FCF7B8FD019B1B68009AD1430E
:103D1000019A52680A4001998968103102FA01F14A
:103D2000019A5068009A02400198806882400A43D4
:103D30009A6103B05DF804FB40BE010800B583B092
:103D400001900091019B002B03D0019B9B680F2BDE
:103D500002D90948FCF790FD019B1968019B5B683B
:103D6000019A9268934008461946009A02F03EFA7A
:103D700003B05DF804FB00BF50BE01080000000066
:103D800000B585B0039002910192039B3033184631
:103D90000299019A4FF0FF33FFF752FA0346184693
:103DA00005B05DF804FB00BF00B585B0039002913B
:103DB0000192039B0C3318460299019A4FF0FF338E
:103DC000FFF7F4F80346184605B05DF804FB00BFA2
:103DD00000B583B001900B468DF80330019B03F1D1
:103DE00030029DF80330104619464FF0FF32FFF7BE
:103DF00095F90346184603B05DF804FB00B583B09F
:103E00000190019B0C3318464FF0FF31FFF786F805
:103E10000346184603B05DF804FB00BF00B585B04B
:103E200003900B4601928DF80B30039B03F1300297
:103E30009DF80B3010461946019AFFF76FF90346BB
:103E4000184605B05DF804FB00B583B00190009101
:103E5000019B0C3318460099FFF760F8034618469B
:103E600003B05DF804FB00BF00B585B0039002917C
:103E700001920093039B303318460299019A009BEC
:103E8000FFF7DEF90346184605B05DF804FB00BFF6
:103E900000B585B00390029101920093039B0C330F
:103EA00018460299019A009BFFF780F803461846CE
:103EB00005B05DF804FB00BF08B503F0D7FA08BDF4
:103EC00000B587B0059004910392059B144A1A60CF
:103ED000059B1A1D059B5A60059B01221A72059BC2
:103EE00003F10C01059B03F15402059B0093084666
:103EF00011464FF48072049BFEF778FF059B03F197
:103F00003001059B03F5AA72059B009308461146F4
:103F10004FF48072039BFFF7ADF807B05DF804FB28
:103F200070BE010800B583B001900091019B002B89
:103F300002D11148FCF7A0FC202383F31188FCF781
:103F4000A3FB019B1B7A012B06D0019B1B7A022B42
:103F500002D00A48FCF790FC0198009903F09EFA01
:103F6000019B02221A72FCF7A5FB002383F3118840
:103F700003B05DF804FB00BF90BE01089CBE0108C1
:103F800000B583B00190019B002B02D11648FCF7CD
:103F900073FC202383F31188FCF776FB019B1B7ACB
:103FA000012B06D0019B1B7A022B02D00F48FCF795
:103FB00063FC019803F09AFA019B01221A72019B9B
:103FC00030331846FFF77EF8019B0C331846FEF796
:103FD00035FFFCF759FEFCF76DFB002383F31188D6
:103FE00003B05DF804FB00BFACBE0108B8BE010819
:103FF00000B583B001900B468DF80330FCF7D8FB79
:10400000019B002B02D11148FCF736FC019B5B6938
:10401000002B05D1019B043318460421FEF77CF9DF
:10402000019B03F10C029DF8033010461946FEF780
:104030002BFF0346002B05DA019B04331846802131
:10404000FEF76AF903B05DF804FB00BFC8BE0108C3
:1040500000B585B00190FCF7ABFB019B002B02D1B2
:104060000B48FCF709FC019B30331846FFF7A0F81A
:104070000390039B002B05DA019B043318460821AB
:10408000FEF74AF9039B184605B05DF804FB00BF34
:10409000DCBE01080000000000000000000000007D
:1040A00000B585B0039002910192039B303318460E
:1040B0000299019A4FF0FF33FFF7C2F80346184602
:1040C00005B05DF804FB00BF00B585B00390029118
:1040D0000192039B0C3318460299019A4FF0FF336B
:1040E000FEF764FF0346184605B05DF804FB00BF09
:1040F00000B583B001900B468DF80330019B03F1AE
:1041000030029DF80330104619464FF0FF32FFF79A
:1041100005F80346184603B05DF804FB00B583B00C
:104120000190019B0C3318464FF0FF31FEF7F6FE6D
:104130000346184603B05DF804FB00BF00B585B028
:1041400003900B4601928DF80B30039B03F1300274
:104150009DF80B3010461946019AFEF7DFFF034623
:10416000184605B05DF804FB00B583B001900091DE
:10417000019B0C3318460099FEF7D0FE0346184603
:1041800003B05DF804FB00BF00B585B00390029159
:1041900001920093039B303318460299019A009BC9
:1041A000FFF74EF80346184605B05DF804FB00BF64
:1041B00000B585B00390029101920093039B0C33EC
:1041C00018460299019A009BFEF7F0FE0346184636
:1041D00005B05DF804FB00BF00B587B00190019BFE
:1041E0001B6A0593059BD3F854321B681B78042B7C
:1041F00003D1059B1B7A022B00D05AE0059BD3F814
:1042000054321A68059BD3F854325B7902339B0011
:1042100013445B685B8A0493059BD3F854321B6894
:104220005B891A46059BD3F854325B7942FA03F353
:1042300003F00103002B3CD1059BDB691A46059B6B
:104240009B69D31A1A46059B5B69D31A0393039A99
:10425000049B9A422DD3FCF72DFA002383F3118897
:10426000039A049BB2FBF3F3049A02FB03F3039358
:10427000059BD3F854321968059BD3F854325A7908
:10428000059B0C33084611461A46039B01F0F6F8CD
:10429000202383F31188FCF7F7F9059BD3F85432F8
:1042A0001A68059BD3F854325B791046194601F021
:1042B00031F907B05DF804FB00B585B00190019BB2
:1042C0001B6A0393039BD3F854321B681B78042B9F
:1042D00003D1039B1B7A022B00D043E0039BD3F84E
:1042E00054321B681B891A46039BD3F854321B793E
:1042F00042FA03F303F00103002B33D1039B1B6C41
:104300001A46039BDB6BD31A1A46039B9B6BD31A8B
:104310000293029B002B25D0FCF7CCF9002383F3FA
:104320001188039BD3F854321968039BD3F8543295
:104330001A79039B3033084611461A46029B01F056
:10434000C3F8202383F31188FCF79EF9039BD3F86D
:1043500054321A68039BD3F854321B79104619461D
:1043600001F010F905B05DF804FB00BF704700BF15
:1043700000B585B00390039B144A1A60039B1A1D75
:10438000039B5A60039B01221A72039B03F10C01E9
:10439000039B03F15402039B0093084611464FF41C
:1043A00080720B4BFEF722FD039B03F13001039B50
:1043B00003F5AA72039B0093084611464FF48072DE
:1043C000044BFEF757FE05B05DF804FBF0BE010894
:1043D000D9410008B942000800B585B001900091AC
:1043E000009B1B680393019B002B02D11D48FCF727
:1043F00043FA202383F31188FCF746F9019B1B7ACB
:10440000012B06D0019B1B7A022B02D01648FCF729
:1044100033FA009B1B79013B039A0A339B00134438
:10442000019A5A60009B5B795A1E039B12320199D4
:1044300043F82210009B9B79013B039A0A339B00AF
:104440001344019A5A60019B009AC3F85422019BBD
:1044500002221A72FCF72EF9002383F3118805B0AB
:104460005DF804FB10BF010820BF010800B585B04E
:104470000190019BD3F854321B680393019B002BDE
:1044800002D12848FCF7F8F9202383F31188FCF7C0
:10449000FBF8019B1B7A012B06D0019B1B7A022B98
:1044A00002D02148FCF7E8F9019BD3F854321B797C
:1044B000013B039A0A339B00134400225A60019B7C
:1044C000D3F854325B795A1E039B1232002143F811
:1044D0002210019BD3F854329B79013B039A0A3393
:1044E0009B00134400225A60019B01221A72019B17
:1044F000043318460221FDF70FFF019B0C331846C9
:10450000FEF79CFC019B30331846FEF7DBFDFCF701
:10451000BBFBFCF7CFF8002383F3118805B05DF8EF
:1045200004FB00BF30BF01083CBF010810B584B0D8
:104530000190019BD3F854321B680393019B0C3309
:104540001846FEF77BFC019B30331846FEF7BAFD98
:10455000019B043318460121FDF7DEFE019BD3F8D1
:1045600054325979019B03F10C04019BD3F8543266
:104570005B79039A02339B0013445B685B8A039860
:10458000224600F07BFF019BD3F854325B790398FD
:10459000194600F0BFFF04B010BD00BF82B001900B
:1045A000019B93F8743003F06003202B2CD1019B06
:1045B00093F87530212B04D0222B18D0202B0BD050
:1045C00020E0019B124A9A66019B0722DA66019B52
:1045D00000221A67012318E0019B0D4A9A66019B8D
:1045E0000722DA66019B00221A6701230DE0019B76
:1045F00000229A66019B0022DA66019B00221A675C
:10460000012302E0002300E00023184602B07047B7
:104610000008002000B585B001900B468DF80330EE
:104620009DF80330013B019A0A339B0013445B68F9
:104630000393039B002B00D172E0202383F31188A6
:10464000FCF74EF8039B043318460821FDF764FE7F
:10465000039B1B6C1A46039BDB6BD31A1A46039B06
:104660009B6BD31A0293029B002B1AD0FCF74EF8D7
:10467000002383F31188039B30339DF803200198B6
:1046800011461A46029B00F01FFF202383F3118876
:10469000FCF726F89DF803300198194600F072FFE8
:1046A00039E09DF80330019A02339B0013445B68A4
:1046B0005B695B68002B2ED09DF80330019A0233B2
:1046C0009B0013445B685B695A689DF8033001994D
:1046D00002339B000B445B681B8A013B1340002B99
:1046E00019D1FCF713F8002383F31188039B3033AF
:1046F0009DF80320019811461A46002300F0E4FEBD
:10470000202383F31188FBF7EBFF9DF8033001981A
:10471000194600F037FFFBF7F9FF002383F31188F8
:1047200005B05DF804FB00BF00B587B001900B46F3
:104730008DF803309DF803305A1E019B123253F856
:1047400022300593059B002B00D149E0202383F301
:104750001188FBF7C5FF059B043318460421FDF7BC
:10476000DBFD9DF80330019A02339B0013445B6824
:104770005B8A0493059BDB691A46059B9B69D31AE8
:104780001A46059B5B69D31A0393039A049B9A42CA
:1047900021D3FBF7BBFF002383F31188039A049B0B
:1047A000B2FBF3F3049A02FB03F30393059B0C3370
:1047B0009DF80320019811461A46039B00F05EFE07
:1047C000202383F31188FBF78BFF9DF803300198BA
:1047D000194600F09FFEFBF799FF002383F3118831
:1047E00007B05DF804FB00BF82B001900B468DF866
:1047F000033002B0704700BF00000000000000005E
:1048000008B502F0BBFA08BD00B583B00190019B6A
:1048100001221A70019B00225A60019B00229A60BB
:10482000019B0C331846FDF761F903B05DF804FBFA
:1048300000B583B001900091019B002B02D0009B3A
:10484000002B02D11148FCF717F8202383F31188BD
:10485000FBF71AFF019B1B78012B06D0019B1B78ED
:10486000022B02D00A48FCF707F8019B009A5A6015
:10487000019802F0A7FA019B02221A70FBF71AFFB7
:10488000002383F3118803B05DF804FB50BF0108D7
:1048900060BF010800B583B00190019B002B02D1DD
:1048A0001148FBF7E9FF202383F31188FBF7ECFEA7
:1048B000019B1B78012B06D0019B1B78022B02D099
:1048C0000A48FBF7D9FF019802F054FB019802F067
:1048D00017FB019B01221A70FBF7ECFE002383F308
:1048E000118803B05DF804FB70BF01087CBF0108AC
:1048F00000B583B00190019B002B02D10C48FBF75F
:10490000BBFF202383F31188FBF7BEFE019B1B78BE
:10491000022B02D00748FBF7AFFF019802F01AFB09
:10492000FBF7C8FE002383F3118803B05DF804FB96
:104930008CBF01089CBF010800B583B00190019BAA
:10494000002B02D10C48FBF797FF202383F311883B
:10495000FBF79AFE019B1B78022B02D00748FBF75E
:104960008BFF019802F006FBFBF7A4FE002383F304
:10497000118803B05DF804FBACBF0108BCBF01089F
:1049800000B583B001900091019B002B02D0009BE9
:10499000002B02D10E48FBF76FFF202383F3118811
:1049A000FBF772FE019B1B78022B02D00948FBF734
:1049B00063FF019B03221A700198009902F0EAFA42
:1049C000FBF778FE002383F3118803B05DF804FB46
:1049D000D0BF0108E4BF010800B585B00390029183
:1049E00001920093039B002B08D0029B002B05D063
:1049F000009B002B02D0019B002B02D10F48FBF73C
:104A00003BFF202383F31188FBF73EFE039B1B78BB
:104A1000022B02D00A48FBF72FFF039B03221A70D8
:104A200003980299019A009B02F0F2FAFBF742FE0A
:104A3000002383F3118805B05DF804FBFCBF010877
:104A400014C0010800B585B0039002910192039B48
:104A5000002B05D0029B002B02D0019B002B02D122
:104A60000F48FBF709FF202383F31188FBF70CFEA7
:104A7000039B1B78022B02D00A48FBF7FDFE039B29
:104A800003221A7003980299019A02F001FBFBF7C6
:104A900011FE002383F3118805B05DF804FB00BF0D
:104AA0002CC0010840C0010800B585B003900291F8
:104AB0000192039B002B05D0029B002B02D0019B8F
:104AC000002B02D10F48FBF7D7FE202383F3118878
:104AD000FBF7DAFD039B1B78022B02D00A48FBF799
:104AE000CBFE039B03221A7003980299019A02F0ED
:104AF0000DFBFBF7DFFD002383F3118805B05DF8A4
:104B000004FB00BF54C0010868C0010800B583B0B1
:104B100001900091019B002B02D0009B002B02D141
:104B20001948FBF7A9FE202383F31188FBF7ACFD9E
:104B3000019B1B78022B02D01448FBF79DFE019BC2
:104B40005B681B68002B02D01148FBF795FE019BA8
:104B500003221A700198009902F01CFA019B9B68CD
:104B6000002B02D00B48FBF787FE0B4B9A69019B89
:104B70009A600220FBF79CFFFBF79CFD002383F368
:104B8000118803B05DF804FB80C0010894C00108DF
:104B9000A4C00108B4C001082C2E002000B585B0C7
:104BA0000390029101920093039B002B08D0029B7B
:104BB000002B05D0009B002B02D0019B002B02D1C3
:104BC0001A48FBF759FE202383F31188FBF75CFD9D
:104BD000039B1B78022B02D01548FBF74DFE039B6D
:104BE0005B681B68002B02D01248FBF745FE039B55
:104BF00003221A7003980299019A009B02F008FAA6
:104C0000039B9B68002B02D00B48FBF735FE0B4B38
:104C10009A69039B9A600220FBF74AFFFBF74AFD63
:104C2000002383F3118805B05DF804FBC4C00108BC
:104C3000D4C00108E8C00108B4C001082C2E00202F
:104C400000B585B0039002910192039B002B05D023
:104C5000029B002B02D0019B002B02D11A48FBF7CC
:104C60000BFE202383F31188FBF70EFD039B1B78BB
:104C7000022B02D01548FBF7FFFD039B5B681B6806
:104C8000002B02D01248FBF7F7FD039B03221A709A
:104C900003980299019A02F0FBF9039B9B68002B91
:104CA00002D00C48FBF7E8FD0B4B9A69039B9A6016
:104CB0000220FBF7FDFEFBF7FDFC002383F31188C8
:104CC00005B05DF804FB00BFFCC0010808C1010885
:104CD00018C10108B4C001082C2E002000B585B011
:104CE000039002910192039B002B05D0029B002BA5
:104CF00002D0019B002B02D11A48FBF7BDFD2023F7
:104D000083F31188FBF7C0FC039B1B78022B02D0B6
:104D10001548FBF7B1FD039B5B681B68002B02D0B5
:104D20001248FBF7A9FD039B03221A70039802990E
:104D3000019A02F0EBF9039B9B68002B02D00C4810
:104D4000FBF79AFD0B4B9A69039B9A600220FBF7D5
:104D5000AFFEFBF7AFFC002383F3118805B05DF8CD
:104D600004FB00BF28C1010838C101084CC101087B
:104D7000B4C001082C2E002000B583B00190019B27
:104D8000002B02D10548FBF777FD019B0C33184639
:104D9000FCF7C4FE03B05DF804FB00BF60C101086E
:104DA00000B583B00190019B002B02D10348FBF7B3
:104DB00063FDFCF78DFF03B05DF804FB74C10108CF
:104DC00000B583B00190019B93F87620019B83F896
:104DD0007E20019802F094FF019B5B681B68002B0A
:104DE00005D0019B5B681B68019801219847019BD6
:104DF00003221A7003B05DF804FB00BF10B584B045
:104E00000190019B93F8743003F07F02019B93F8AB
:104E100075301B021343B3F5407F59D0B3F5407F83
:104E200012DC022B00F0E480022B05DC002B27D0E3
:104E3000012B00F0D2809CE1B3F5807F2DD0B3F53B
:104E4000817F00F02C8194E1B3F5C06F66D0B3F59B
:104E5000C06F08DC40F20232934200F05581B3F596
:104E6000A06F50D085E1B3F5106F00F08E8040F652
:104E70000242934200F0B180B3F5006F78D078E140
:104E8000019B03F17C02019B9A66019B0222DA6678
:104E9000019B00221A6701236CE1019B93F8763095
:104EA000012B13D1019BB3F87C3023F002039AB29B
:104EB000019BA3F87C20019B00229A66019B0022A3
:104EC000DA66019B00221A67012353E1002351E1B6
:104ED000019B93F87630012B13D1019BB3F87C3002
:104EE00043F002039AB2019BA3F87C20019B0022AD
:104EF0009A66019B0022DA66019B00221A67012351
:104F000038E1002336E1019B00229A66019B0022D2
:104F1000DA66019B994A1A6701232BE1019B5B68C2
:104F20005C68019B93F87710019B93F87620019BB6
:104F300093F8783098B2019B93F879301B029BB2BA
:104F400003439BB29BB20198A0470390039B002BA5
:104F500001D100230EE1039B5A68019B9A66039BD3
:104F60001A68019BDA66019B00221A67012301E19E
:104F7000019B03F17F02019B9A66019B0122DA6685
:104F8000019B00221A670123F4E0019B93F876202D
:104F9000019B83F87F20019B93F87F30002B03D186
:104FA000019B03221A7002E0019B04221A70019BEC
:104FB0005B681B68002B05D0019B5B681B68019830
:104FC00002219847019B00229A66019B0022DA6623
:104FD000019B00221A670123CCE0019B684A9A6674
:104FE000019B0222DA66019B00221A670123C1E0BD
:104FF000019B93F87830DBB25BB2002B27DA019B80
:1050000093F8783003F00F03DBB20198194602F0F1
:105010006DFF0346012B02D0022B0BD015E0019B44
:10502000584A9A66019B0222DA66019B00221A679F
:1050300001239FE0019B544A9A66019B0222DA6693
:10504000019B00221A67012394E0002392E0019B58
:1050500093F8783003F00F03DBB20198194602F0A1
:1050600029FF0346012B02D0022B0BD015E0019B38
:10507000444A9A66019B0222DA66019B00221A6763
:10508000012377E0019B404A9A66019B0222DA667F
:10509000019B00221A6701236CE000236AE0019B58
:1050A00093F87630002B01D0002363E0019B93F846
:1050B000783003F00F03002B1BDD019B93F8783051
:1050C000DBB25BB2002B0ADA019B93F8783003F075
:1050D0000F03DBB20198194603F06CF809E0019B5D
:1050E00093F8783003F00F03DBB20198194603F010
:1050F0003DF8019B00229A66019B0022DA66019B23
:1051000000221A67012335E0019B93F87630002BCB
:1051100001D000232EE0019B93F8783003F00F03B9
:10512000002B1BDD019B93F87830DBB25BB2002BC8
:105130000ADA019B93F8783003F00F03DBB2019891
:10514000194602F0F9FF09E0019B93F8783003F06B
:105150000F03DBB20198194602F0D4FF019B002235
:105160009A66019B0022DA66019B00221A670123DE
:1051700000E00023184604B010BD00BFC14D000878
:1051800090C1010898C1010894C1010808B502F056
:1051900033FD08BD84B00190019B01221A70019B70
:1051A00000225A60002303930FE0019A039B0A3305
:1051B0009B00134400225A60019B039A1232002183
:1051C00043F82210039B01330393039B062BECD976
:1051D000019B00221A81019B00225A8104B0704772
:1051E00000B585B001900091019B002B02D0009B7F
:1051F000002B02D11948FBF73FFB202383F31188D2
:10520000FBF742FA019B1B78012B06D0019B1B7810
:10521000022B02D01248FBF72FFB019B009A5A6029
:105220000023039309E0019A039B02339B0013447C
:1052300000225A60039B01330393039B072BF2D98F
:10524000019802F0E1FC019B02221A70FBF732FA8E
:10525000002383F3118805B05DF804FB9CC10108AD
:10526000ACC1010800B583B00190019B002B02D1B5
:105270001448FBF701FB202383F31188FBF704FAA2
:10528000019B1B78012B0ED0019B1B78022B0AD0AF
:10529000019B1B78032B06D0019B1B78042B02D0AB
:1052A0000948FBF7E9FA019802F0DAFC019B0122B8
:1052B0001A70FBF7FFF9002383F3118803B05DF840
:1052C00004FB00BFBCC10108C8C1010800B585B01E
:1052D00003900B4601928DF80B30FBF769FA039BA4
:1052E000002B02D0019B002B02D11E48FBF7C4FA11
:1052F000039B1B78042B02D01B48FBF7BDFA9DF8DB
:105300000B30039A02339B0013445B68002B02D0DE
:105310001648FBF7B1FA019B5B69002B06D0019B95
:105320005B6918460021102211F082FB019B9B69EA
:10533000002B06D0019B9B6918460021142211F016
:1053400077FB9DF80B30039A02339B001344019ABC
:105350005A609DF80B300398194602F0DFFC05B047
:105360005DF804FBD8C10108F0C101080CC20108B6
:1053700000B585B00190FBF71BFA019B002B02D111
:105380001648FBF779FA019B1B78032B02D01448CF
:10539000FBF772FA019B1B8923F001039AB2019B70
:1053A0001A81019B5B8923F001039AB2019B5A8108
:1053B0000123039309E0019A039B02339B001344EA
:1053C00000225A60039B01330393039B072BF2D9FE
:1053D000019802F04DFD05B05DF804FB28C20108FC
:1053E00044C2010800B587B00390019200930B46B8
:1053F0008DF80B309DF80B30039A02339B00134459
:105400005B689B690593059B00221A70059B019AB6
:10541000DA60059B009A5A60059B00229A609DF80D
:105420000B300398194602F0AFFD07B05DF804FB9E
:1054300000B587B00390019200930B468DF80B30B6
:105440009DF80B30039A02339B0013445B685B6941
:105450000593059B00221A70059B019ADA60059B53
:10546000009A5A60059B00229A609DF80B300398C1
:10547000194602F0BBFD07B05DF804FB00B587B02C
:105480000390019200930B468DF80B309DF80B3082
:10549000039A02339B0013445B689B690593059B49
:1054A00001221A70059B019ADA60059B009A5A60E6
:1054B000059B00229A609DF80B300398194602F074
:1054C00063FD07B05DF804FB00B587B0039001925F
:1054D00000930B468DF80B309DF80B30039A023386
:1054E0009B0013445B685B690593059B01221A705E
:1054F000059B019ADA60059B009A5A60059B002281
:105500009A609DF80B300398194602F06FFD07B0C2
:105510005DF804FB00B583B001900B468DF80330B5
:10552000FBF746F9019B002B02D11548FBF7A4F9C4
:10553000019B5B891A469DF8033042FA03F303F09E
:105540000103002B01D0012315E0019B5B8999B277
:105550009DF80330012202FA03F39BB20A4613437B
:105560009BB29AB2019B5A819DF80330019819466B
:1055700002F094FD0023184603B05DF804FB00BF61
:1055800060C2010800B583B001900B468DF803306E
:10559000FBF70EF9019B002B02D11548FBF76CF9C4
:1055A000019B1B891A469DF8033042FA03F303F06E
:1055B0000103002B01D0012315E0019B1B8999B247
:1055C0009DF80330012202FA03F39BB20A4613430B
:1055D0009BB29AB2019B1A819DF80330019819463B
:1055E00002F076FD0023184603B05DF804FB00BF0F
:1055F00078C2010800B583B001900B468DF80330E6
:10560000FBF7D6F8019B002B02D10D48FBF734F9CC
:10561000019B5B891A469DF8033042FA03F303F0BD
:105620000103002B01D0012306E09DF8033001980F
:10563000194602F067FD0023184603B05DF804FB2D
:1056400090C2010800B583B001900B468DF803307D
:10565000FBF7AEF8019B002B02D10D48FBF70CF9CC
:10566000019B1B891A469DF8033042FA03F303F0AD
:105670000103002B01D0012306E09DF803300198BF
:10568000194602F059FD0023184603B05DF804FBEB
:10569000A8C2010800B585B00190019B02221A70D2
:1056A000019B0022A3F87C20019B002283F87E202E
:1056B000019B002283F87F20019B00221A81019B1D
:1056C00000225A810023039309E0019A039B0233CD
:1056D0009B00134400225A60039B01330393039BF6
:1056E000072BF2D9019B002283F86420019802F075
:1056F000DBFA05B05DF804FB00B585B001900B4600
:105700008DF80330019B002283F86420019B7433E1
:105710009DF80320019811461A4602F003FC019BF4
:105720005B689B68002B0AD0019B5B689B680198B3
:105730009847034683F00103DBB2002B27D0019B7F
:1057400093F8743003F06003002B08D10198FFF741
:1057500055FB034683F00103DBB2002B17D0019801
:10576000002102F0E9FC0198002102F0CBFC019B32
:105770005B681B68002B05D0019B5B681B68019868
:1057800005219847019B062283F8642087E0019B4E
:1057900093F87A301A46019B93F87B301B0213432F
:1057A0000393019BDA6E039B9A4202D9019B039AF1
:1057B000DA66019B93F87430DBB25BB2002B37DA08
:1057C000019BDB6E002B1AD0019B012283F8642021
:1057D000019B9A6E019BDB6E01980021FFF728FE6A
:1057E000202383F31188FAF77BFF01980021FFF74C
:1057F000C9FEFAF78BFF002383F311884FE0019B6A
:10580000032283F864200198002100220023FFF77F
:10581000E9FD202383F31188FAF762FF0198002144
:10582000FFF778FEFAF772FF002383F3118836E062
:10583000019BDB6E002B1AD0019B042283F86420AD
:10584000019B9A6E019BDB6E01980021FFF7CAFD58
:10585000202383F31188FAF743FF01980021FFF713
:1058600059FEFAF753FF002383F3118817E0019BD9
:10587000052283F864200198002100220023FFF70D
:10588000D7FD202383F31188FAF72AFF019800211E
:10589000FFF778FEFAF73AFF002383F3118805B08B
:1058A0005DF804FB00B585B001900B468DF8033020
:1058B000019B93F86430022B37D0052B4ED0012B7F
:1058C00059D1019B93F87A301A46019B93F87B30AB
:1058D0001B0213430393019BDA6E039B9A4224D26B
:1058E000019BDB6E019AD268128AB3FBF2F102FBD4
:1058F00001F29B1A002B18D10198002100220023ED
:10590000FFF796FD202383F31188FAF7E9FE01984B
:105910000021FFF737FEFAF7F9FE002383F3118821
:10592000019B022283F864203CE0019B032283F860
:1059300064200198002100220023FFF753FD20235B
:1059400083F31188FAF7CCFE01980021FFF7E2FDFE
:10595000FAF7DCFE002383F3118823E0019B1B6F21
:10596000002B03D0019B1B6F01989847019B0022DD
:1059700083F8642016E00198002102F0DDFB019815
:10598000002102F0BFFB019B5B681B68002B05D068
:10599000019B5B681B68019805219847019B0622C3
:1059A00083F8642005B05DF804FB00BF00B583B048
:1059B00001900B468DF80330019B93F86430032B64
:1059C0001AD0042B2CD1019B052283F86420019866
:1059D000002100220023FFF72BFD202383F31188F1
:1059E000FAF77EFE01980021FFF7CCFDFAF78EFE54
:1059F000002383F311882AE0019BDB689B699B6885
:105A0000002B00D00CE0019B1B6F002B03D0019BEF
:105A10001B6F01989847019B002283F8642016E0D1
:105A20000198002102F088FB0198002102F06AFB36
:105A3000019B5B681B68002B05D0019B5B681B68A2
:105A4000019805219847019B062283F8642003B042
:105A50005DF804FB000000000000000000000000F2
:105A600000B583B0FAF768FE0C4B1B6803F00F0318
:105A700001930A4A019B5360094B1B68002B06D017
:105A8000074B1B68064A5268104601999847FAF777
:105A900071FEFAF741FC03B05DF804FB0000024020
:105AA0006411002000B583B0FAF746FE0D4B1B6869
:105AB0001B0903F00F0301930A4A019B1B0153606A
:105AC000094B9B68002B06D0074B9B68064AD2689F
:105AD000104601999847FAF74DFEFAF71DFC03B0FE
:105AE0005DF804FB000002406411002000B583B0A3
